:10000000F5EF00F00000000000EF00F0000000003D
:0A0010000000000000000000F3D71C
:06001C00000000001200CC
:100022000F0E0C6E470E0D6E0D2EFED70C2EFCD74A
:06003200000000001200B6
:0A003800210E0D6E0D2EFED71200F2
:100042004FBE02D0829601D082864FBC02D08294EB
:1000520001D082844FBA02D0829201D082824FB8FC
:1000620002D0829001D0828048B002D0828801D032
:100072008298828AD2DF829A4FB602D0829601D0CB
:1000820082864FB402D0829401D082844FB202D0D1
:10009200829201D082824FB002D0829001D08280BF
:1000A20048B002D0828801D08298828AB6DF829AD2
:0C00B20048A002D0B5DF01D0BEDF120074
:0C00BE0048904EC04FF0BEDF488012009A
:1000CA000900F5CFE6FF0006FBE10106F9E112009F
:1000DA00949A94989490949294949496829A8298EA
:1000EA00829682948292829097DF96DF95DF82824F
:1000FA008280828A8EDF829A8FDF828A8ADF829A60
:10010A008BDF828A86DF829A87DF8290828A81DF0A
:10011A00829A82DF828A7DDF829A82928286828AAC
:10012A0078DF829A79DF82968280828A72DF829A67
:10013A008290828A6EDF829A6FDF828A6ADF829A6F
:10014A008280828A66DF829A67DF8290828A61DF92
:10015A00829A8286828482828280828A5ADF829A04
:06016A005BDF488012007B
:100170000FD0800E496E19D0C00E496E16D0940E65
:10018000496E13D0D40E496E10D0800E496E0DD03A
:100190004950010AEEE04950020AEEE04950030AD4
:1001A000EEE04950040AEEE0F0D74A04006E4950F0
:1001B000002600C049F000C04FF043DF48904D6A70
:1001C0004D504B24E96E000E4C20EA6EEE520BE0CF
:1001D0004D504B24E96E000E4C20EA6EEECF4EF0EF
:0A01E0006EDF4D2AEDD748801200B3
:1001EA001FEC02F075DF0C0E4F6E26DF010E466E15
:1001FA00000E476E800E006E800E4718005C02E10A
:10020A0046501008D8A06CD0010E496E46C04AF07C
:10021A00230E4B6E000E4C6EA6DF030E0B6E080EFD
:10022A000C6E770E0D6E0D2EFED70C2EFCD70B2EF4
:10023A00FAD7010E496E46C04AF02B0E4B6E000EDD
:10024A004C6E91DF000E471802E10C0E461809E1C8
:10025A00020E496E100E4A6E290E4B6E000E4C6E3F
:10026A0082DF000E471802E10D0E461809E1020E60
:10027A00496E0F0E4A6E170E4B6E000E4C6E73DFF0
:10028A00000E471802E10E0E461809E1020E496EE9
:10029A000E0E4A6E150E4B6E000E4C6E64DF000E8B
:1002AA00471802E10F0E461809E1020E496E0D0EBB
:1002BA004A6E190E4B6E000E4C6E55DF000E471833
:1002CA0002E1100E461809E1020E496E0C0E4A6E42
:1002DA00210E4B6E000E4C6E46DF464A472A8AD7DD
:1002EA00020E496E0D0E4A6E1B0E4B6E000E4C6EC0
:1002FA003ADF0B0E466E000E476E800E4718006EF0
:10030A007F0E005C02E1FC0E465CD8A06FD0020EA4
:10031A00496E46C04AF03C0E4B6E000E4C6E23DF0F
:10032A00000E471802E1000E461809E1010E496E57
:10033A00010E4A6E3A0E4B6E000E4C6E14DFFF0E23
:10034A00471802E1FF0E461809E1010E496E020E36
:10035A004A6E440E4B6E000E4C6E05DFFF0E4718B8
:10036A0002E1FE0E461809E1010E496E030E4A6EBD
:10037A00420E4B6E000E4C6EF6DEFF0E471802E17F
:10038A00FD0E461809E1010E496E040E4A6E2F0E43
:10039A004B6E000E4C6EE7DEFF0E471802E1FC0EB4
:1003AA00461809E1010E496E050E4A6E2D0E4B6E76
:1003BA00000E4C6ED8DE030E0B6E080E0C6E770E16
:1003CA000D6E0D2EFED70C2EFCD70B2EFAD7020E71
:1003DA00496E040E46244A6E370E4B6E000E4C6E62
:1003EA00C2DE010E465E000E475A87D7020E496EDC
:1003FA00010E4A6E310E4B6E000E4C6EB4DEF6D60E
:02040A00FFD71A
:10043E0010EE15F0310E006E010E016E0C0EF66E02
:0E044E00040EF76E000EF86E65EC00F0120062
:02040C006C0082
:02040E006C0080
:02041000650085
:0604120020202020200044
:0204180048009A
:06041A0048656C6C6F00E8
:020420006F006B
:020422002000B8
:020424006F0067
:020426006C0068
:060428002020202020002E
:03042E002020008B
:02043100480081
:0604330048656C6C6F00CF
:020439006C0055
:02043B0065005A
:020000040030CA
:0D000100021F1EFF8381FF0FC00FE00F40A4
:00000001FF
